{
  "contractName": "Polyn",
  "abi": [
    {
      "constant": true,
      "inputs": [
        {
          "name": "",
          "type": "address"
        }
      ],
      "name": "FarmersData",
      "outputs": [
        {
          "name": "FarmersAddress",
          "type": "address"
        },
        {
          "name": "FarmersName",
          "type": "string"
        }
      ],
      "payable": false,
      "stateMutability": "view",
      "type": "function"
    },
    {
      "constant": true,
      "inputs": [
        {
          "name": "",
          "type": "address"
        }
      ],
      "name": "RetailersData",
      "outputs": [
        {
          "name": "RetailersAddress",
          "type": "address"
        },
        {
          "name": "RetailersName",
          "type": "string"
        }
      ],
      "payable": false,
      "stateMutability": "view",
      "type": "function"
    },
    {
      "constant": true,
      "inputs": [
        {
          "name": "",
          "type": "address"
        }
      ],
      "name": "FarmersMData",
      "outputs": [
        {
          "name": "FarmersMAddress",
          "type": "address"
        },
        {
          "name": "FarmersMName",
          "type": "string"
        },
        {
          "name": "WeightofCrop",
          "type": "uint256"
        }
      ],
      "payable": false,
      "stateMutability": "view",
      "type": "function"
    },
    {
      "inputs": [],
      "payable": false,
      "stateMutability": "nonpayable",
      "type": "constructor"
    },
    {
      "payable": false,
      "stateMutability": "nonpayable",
      "type": "fallback"
    },
    {
      "anonymous": false,
      "inputs": [
        {
          "indexed": true,
          "name": "from",
          "type": "address"
        },
        {
          "indexed": true,
          "name": "to",
          "type": "address"
        },
        {
          "indexed": false,
          "name": "tokens",
          "type": "uint256"
        }
      ],
      "name": "Transfer",
      "type": "event"
    },
    {
      "anonymous": false,
      "inputs": [
        {
          "indexed": true,
          "name": "tokenOwner",
          "type": "address"
        },
        {
          "indexed": true,
          "name": "spender",
          "type": "address"
        },
        {
          "indexed": false,
          "name": "tokens",
          "type": "uint256"
        }
      ],
      "name": "Approval",
      "type": "event"
    },
    {
      "anonymous": false,
      "inputs": [
        {
          "indexed": false,
          "name": "_error",
          "type": "string"
        }
      ],
      "name": "errorLog",
      "type": "event"
    },
    {
      "constant": true,
      "inputs": [],
      "name": "name",
      "outputs": [
        {
          "name": "",
          "type": "string"
        }
      ],
      "payable": false,
      "stateMutability": "pure",
      "type": "function"
    },
    {
      "constant": true,
      "inputs": [],
      "name": "symbol",
      "outputs": [
        {
          "name": "",
          "type": "string"
        }
      ],
      "payable": false,
      "stateMutability": "pure",
      "type": "function"
    },
    {
      "constant": true,
      "inputs": [],
      "name": "decimals",
      "outputs": [
        {
          "name": "",
          "type": "uint8"
        }
      ],
      "payable": false,
      "stateMutability": "pure",
      "type": "function"
    },
    {
      "constant": true,
      "inputs": [],
      "name": "totalSupply",
      "outputs": [
        {
          "name": "",
          "type": "uint256"
        }
      ],
      "payable": false,
      "stateMutability": "view",
      "type": "function"
    },
    {
      "constant": true,
      "inputs": [
        {
          "name": "tokenOwner",
          "type": "address"
        }
      ],
      "name": "balanceOf",
      "outputs": [
        {
          "name": "balance",
          "type": "uint256"
        }
      ],
      "payable": false,
      "stateMutability": "view",
      "type": "function"
    },
    {
      "constant": true,
      "inputs": [
        {
          "name": "tokenOwner",
          "type": "address"
        },
        {
          "name": "spender",
          "type": "address"
        }
      ],
      "name": "allowance",
      "outputs": [
        {
          "name": "remaining",
          "type": "uint256"
        }
      ],
      "payable": false,
      "stateMutability": "view",
      "type": "function"
    },
    {
      "constant": false,
      "inputs": [
        {
          "name": "spender",
          "type": "address"
        },
        {
          "name": "tokens",
          "type": "uint256"
        }
      ],
      "name": "approve",
      "outputs": [
        {
          "name": "success",
          "type": "bool"
        }
      ],
      "payable": false,
      "stateMutability": "nonpayable",
      "type": "function"
    },
    {
      "constant": false,
      "inputs": [
        {
          "name": "to",
          "type": "address"
        },
        {
          "name": "tokens",
          "type": "uint256"
        }
      ],
      "name": "transfer",
      "outputs": [
        {
          "name": "success",
          "type": "bool"
        }
      ],
      "payable": false,
      "stateMutability": "nonpayable",
      "type": "function"
    },
    {
      "constant": false,
      "inputs": [
        {
          "name": "from",
          "type": "address"
        },
        {
          "name": "to",
          "type": "address"
        },
        {
          "name": "tokens",
          "type": "uint256"
        }
      ],
      "name": "transferFrom",
      "outputs": [
        {
          "name": "sucess",
          "type": "bool"
        }
      ],
      "payable": false,
      "stateMutability": "nonpayable",
      "type": "function"
    },
    {
      "constant": false,
      "inputs": [
        {
          "name": "_FarmersMName",
          "type": "string"
        }
      ],
      "name": "AddFarmersMarketData",
      "outputs": [],
      "payable": false,
      "stateMutability": "nonpayable",
      "type": "function"
    },
    {
      "constant": false,
      "inputs": [
        {
          "name": "_FarmersAddress",
          "type": "address"
        },
        {
          "name": "_FarmersName",
          "type": "string"
        }
      ],
      "name": "AddFarmersData",
      "outputs": [],
      "payable": false,
      "stateMutability": "nonpayable",
      "type": "function"
    },
    {
      "constant": false,
      "inputs": [
        {
          "name": "_RetailersAddress",
          "type": "address"
        },
        {
          "name": "_RetailersName",
          "type": "string"
        }
      ],
      "name": "AddRetailerData",
      "outputs": [],
      "payable": false,
      "stateMutability": "nonpayable",
      "type": "function"
    },
    {
      "constant": false,
      "inputs": [
        {
          "name": "_FarmersAddress",
          "type": "address"
        },
        {
          "name": "_weight",
          "type": "uint256"
        }
      ],
      "name": "FarmersMarketSell",
      "outputs": [],
      "payable": false,
      "stateMutability": "nonpayable",
      "type": "function"
    },
    {
      "constant": false,
      "inputs": [
        {
          "name": "_RetailersAddress",
          "type": "address"
        },
        {
          "name": "_weight",
          "type": "uint256"
        }
      ],
      "name": "RetailersMarketBuy",
      "outputs": [],
      "payable": false,
      "stateMutability": "nonpayable",
      "type": "function"
    }
  ],
  "bytecode": "0x6080604052600160005533600160006101000a81548173ffffffffffffffffffffffffffffffffffffffff021916908373ffffffffffffffffffffffffffffffffffffffff16021790555034801561005657600080fd5b5067016345785d8a0000600260003373ffffffffffffffffffffffffffffffffffffffff1673ffffffffffffffffffffffffffffffffffffffff16815260200190815260200160002081905550611f29806100b26000396000f3006080604052600436106100f1576000357c0100000000000000000000000000000000000000000000000000000000900463ffffffff16806306fdde0314610103578063095ea7b3146101935780630c16ecaf146101f857806318160ddd146102615780631fe2a3ec1461028c57806323b872dd14610315578063313ce5671461039a57806343f4f5fe146103cb57806350f1db1a146104ba57806354f13d861461050757806370a08231146105905780638bd40564146105e757806395d89b4114610634578063a9059cbb146106c4578063b53957bd14610729578063dd62ed3e14610818578063eb1e945d1461088f575b3480156100fd57600080fd5b50600080fd5b34801561010f57600080fd5b50610118610985565b6040518080602001828103825283818151815260200191508051906020019080838360005b8381101561015857808201518184015260208101905061013d565b50505050905090810190601f1680156101855780820380516001836020036101000a031916815260200191505b509250505060405180910390f35b34801561019f57600080fd5b506101de600480360381019080803573ffffffffffffffffffffffffffffffffffffffff169060200190929190803590602001909291905050506109c2565b604051808215151515815260200191505060405180910390f35b34801561020457600080fd5b5061025f600480360381019080803590602001908201803590602001908080601f0160208091040260200160405190810160405280939291908181526020018383808284378201915050505050509192919290505050610adc565b005b34801561026d57600080fd5b50610276610d4e565b6040518082815260200191505060405180910390f35b34801561029857600080fd5b50610313600480360381019080803573ffffffffffffffffffffffffffffffffffffffff169060200190929190803590602001908201803590602001908080601f0160208091040260200160405190810160405280939291908181526020018383808284378201915050505050509192919290505050610d5e565b005b34801561032157600080fd5b50610380600480360381019080803573ffffffffffffffffffffffffffffffffffffffff169060200190929190803573ffffffffffffffffffffffffffffffffffffffff16906020019092919080359060200190929190505050610f37565b604051808215151515815260200191505060405180910390f35b3480156103a657600080fd5b506103af6111af565b604051808260ff1660ff16815260200191505060405180910390f35b3480156103d757600080fd5b5061040c600480360381019080803573ffffffffffffffffffffffffffffffffffffffff1690602001909291905050506111b8565b604051808373ffffffffffffffffffffffffffffffffffffffff1673ffffffffffffffffffffffffffffffffffffffff16815260200180602001828103825283818151815260200191508051906020019080838360005b8381101561047e578082015181840152602081019050610463565b50505050905090810190601f1680156104ab5780820380516001836020036101000a031916815260200191505b50935050505060405180910390f35b3480156104c657600080fd5b50610505600480360381019080803573ffffffffffffffffffffffffffffffffffffffff16906020019092919080359060200190929190505050611294565b005b34801561051357600080fd5b5061058e600480360381019080803573ffffffffffffffffffffffffffffffffffffffff169060200190929190803590602001908201803590602001908080601f0160208091040260200160405190810160405280939291908181526020018383808284378201915050505050509192919290505050611526565b005b34801561059c57600080fd5b506105d1600480360381019080803573ffffffffffffffffffffffffffffffffffffffff1690602001909291905050506116ff565b6040518082815260200191505060405180910390f35b3480156105f357600080fd5b50610632600480360381019080803573ffffffffffffffffffffffffffffffffffffffff16906020019092919080359060200190929190505050611748565b005b34801561064057600080fd5b50610649611a6f565b6040518080602001828103825283818151815260200191508051906020019080838360005b8381101561068957808201518184015260208101905061066e565b50505050905090810190601f1680156106b65780820380516001836020036101000a031916815260200191505b509250505060405180910390f35b3480156106d057600080fd5b5061070f600480360381019080803573ffffffffffffffffffffffffffffffffffffffff16906020019092919080359060200190929190505050611aac565b604051808215151515815260200191505060405180910390f35b34801561073557600080fd5b5061076a600480360381019080803573ffffffffffffffffffffffffffffffffffffffff169060200190929190505050611c13565b604051808373ffffffffffffffffffffffffffffffffffffffff1673ffffffffffffffffffffffffffffffffffffffff16815260200180602001828103825283818151815260200191508051906020019080838360005b838110156107dc5780820151818401526020810190506107c1565b50505050905090810190601f1680156108095780820380516001836020036101000a031916815260200191505b50935050505060405180910390f35b34801561082457600080fd5b50610879600480360381019080803573ffffffffffffffffffffffffffffffffffffffff169060200190929190803573ffffffffffffffffffffffffffffffffffffffff169060200190929190505050611cef565b6040518082815260200191505060405180910390f35b34801561089b57600080fd5b506108d0600480360381019080803573ffffffffffffffffffffffffffffffffffffffff169060200190929190505050611d76565b604051808473ffffffffffffffffffffffffffffffffffffffff1673ffffffffffffffffffffffffffffffffffffffff16815260200180602001838152602001828103825284818151815260200191508051906020019080838360005b8381101561094857808201518184015260208101905061092d565b50505050905090810190601f1680156109755780820380516001836020036101000a031916815260200191505b5094505050505060405180910390f35b60606040805190810160405280600d81526020017f4661726d65727320546f6b656e00000000000000000000000000000000000000815250905090565b6000808373ffffffffffffffffffffffffffffffffffffffff1614156109eb5760009050610ad6565b81600360003373ffffffffffffffffffffffffffffffffffffffff1673ffffffffffffffffffffffffffffffffffffffff16815260200190815260200160002060008573ffffffffffffffffffffffffffffffffffffffff1673ffffffffffffffffffffffffffffffffffffffff168152602001908152602001600020819055508273ffffffffffffffffffffffffffffffffffffffff163373ffffffffffffffffffffffffffffffffffffffff167f8c5be1e5ebec7d5bd14f71427d1e84f3dd0314c0f7b2291e5b200ac8c7c3b925846040518082815260200191505060405180910390a3600190505b92915050565b600160009054906101000a900473ffffffffffffffffffffffffffffffffffffffff1673ffffffffffffffffffffffffffffffffffffffff1660046000600160009054906101000a900473ffffffffffffffffffffffffffffffffffffffff1673ffffffffffffffffffffffffffffffffffffffff1673ffffffffffffffffffffffffffffffffffffffff16815260200190815260200160002060000160009054906101000a900473ffffffffffffffffffffffffffffffffffffffff1673ffffffffffffffffffffffffffffffffffffffff161415610c23577fdf8dca245d7ff96a83e9b8205a2ad0be04df6e3bbda74669314fdc76657f0e8260405180806020018281038252601c8152602001807f4661726d6572204d61726b65742069732052656769737465726564210000000081525060200191505060405180910390a1610d4b565b606060405190810160405280600160009054906101000a900473ffffffffffffffffffffffffffffffffffffffff1673ffffffffffffffffffffffffffffffffffffffff168152602001828152602001600081525060046000600160009054906101000a900473ffffffffffffffffffffffffffffffffffffffff1673ffffffffffffffffffffffffffffffffffffffff1673ffffffffffffffffffffffffffffffffffffffff16815260200190815260200160002060008201518160000160006101000a81548173ffffffffffffffffffffffffffffffffffffffff021916908373ffffffffffffffffffffffffffffffffffffffff1602179055506020820151816001019080519060200190610d3c929190611e58565b50604082015181600201559050505b50565b600067016345785d8a0000905090565b8173ffffffffffffffffffffffffffffffffffffffff16600560008473ffffffffffffffffffffffffffffffffffffffff1673ffffffffffffffffffffffffffffffffffffffff16815260200190815260200160002060000160009054906101000a900473ffffffffffffffffffffffffffffffffffffffff1673ffffffffffffffffffffffffffffffffffffffff161415610e61577fdf8dca245d7ff96a83e9b8205a2ad0be04df6e3bbda74669314fdc76657f0e826040518080602001828103825260158152602001807f4661726d6572206973205265676973746572656421000000000000000000000081525060200191505060405180910390a1610f33565b60408051908101604052808373ffffffffffffffffffffffffffffffffffffffff16815260200182815250600560008473ffffffffffffffffffffffffffffffffffffffff1673ffffffffffffffffffffffffffffffffffffffff16815260200190815260200160002060008201518160000160006101000a81548173ffffffffffffffffffffffffffffffffffffffff021916908373ffffffffffffffffffffffffffffffffffffffff1602179055506020820151816001019080519060200190610f2e929190611e58565b509050505b5050565b600081600260008673ffffffffffffffffffffffffffffffffffffffff1673ffffffffffffffffffffffffffffffffffffffff168152602001908152602001600020541080611001575081600360008673ffffffffffffffffffffffffffffffffffffffff1673ffffffffffffffffffffffffffffffffffffffff16815260200190815260200160002060003373ffffffffffffffffffffffffffffffffffffffff1673ffffffffffffffffffffffffffffffffffffffff16815260200190815260200160002054105b8061100c5750600082105b1561101a57600090506111a8565b81600260008573ffffffffffffffffffffffffffffffffffffffff1673ffffffffffffffffffffffffffffffffffffffff1681526020019081526020016000206000828254019250508190555081600260008673ffffffffffffffffffffffffffffffffffffffff1673ffffffffffffffffffffffffffffffffffffffff1681526020019081526020016000206000828254039250508190555081600360008673ffffffffffffffffffffffffffffffffffffffff1673ffffffffffffffffffffffffffffffffffffffff16815260200190815260200160002060003373ffffffffffffffffffffffffffffffffffffffff1673ffffffffffffffffffffffffffffffffffffffff168152602001908152602001600020600082825403925050819055508273ffffffffffffffffffffffffffffffffffffffff168473ffffffffffffffffffffffffffffffffffffffff167fddf252ad1be2c89b69c2b068fc378daa952ba7f163c4a11628f55a4df523b3ef846040518082815260200191505060405180910390a3600190505b9392505050565b60006009905090565b60056020528060005260406000206000915090508060000160009054906101000a900473ffffffffffffffffffffffffffffffffffffffff1690806001018054600181600116156101000203166002900480601f01602080910402602001604051908101604052809291908181526020018280546001816001161561010002031660029004801561128a5780601f1061125f5761010080835404028352916020019161128a565b820191906000526020600020905b81548152906001019060200180831161126d57829003601f168201915b5050505050905082565b60006064605a6000548402028115156112a957fe5b0490508060026000600160009054906101000a900473ffffffffffffffffffffffffffffffffffffffff1673ffffffffffffffffffffffffffffffffffffffff1673ffffffffffffffffffffffffffffffffffffffff16815260200190815260200160002054108061131b5750600081145b1561138d577fdf8dca245d7ff96a83e9b8205a2ad0be04df6e3bbda74669314fdc76657f0e826040518080602001828103825260198152602001807f506c6561736520656e7465722076616c696420616d6f756e740000000000000081525060200191505060405180910390a1611521565b8060026000600160009054906101000a900473ffffffffffffffffffffffffffffffffffffffff1673ffffffffffffffffffffffffffffffffffffffff1673ffffffffffffffffffffffffffffffffffffffff1681526020019081526020016000206000828254039250508190555080600260008573ffffffffffffffffffffffffffffffffffffffff1673ffffffffffffffffffffffffffffffffffffffff168152602001908152602001600020600082825401925050819055508160046000600160009054906101000a900473ffffffffffffffffffffffffffffffffffffffff1673ffffffffffffffffffffffffffffffffffffffff1673ffffffffffffffffffffffffffffffffffffffff168152602001908152602001600020600201600082825401925050819055508273ffffffffffffffffffffffffffffffffffffffff163373ffffffffffffffffffffffffffffffffffffffff167fddf252ad1be2c89b69c2b068fc378daa952ba7f163c4a11628f55a4df523b3ef836040518082815260200191505060405180910390a35b505050565b8173ffffffffffffffffffffffffffffffffffffffff16600660008473ffffffffffffffffffffffffffffffffffffffff1673ffffffffffffffffffffffffffffffffffffffff16815260200190815260200160002060000160009054906101000a900473ffffffffffffffffffffffffffffffffffffffff1673ffffffffffffffffffffffffffffffffffffffff161415611629577fdf8dca245d7ff96a83e9b8205a2ad0be04df6e3bbda74669314fdc76657f0e826040518080602001828103825260178152602001807f52657461696c657220697320526567697374657265642100000000000000000081525060200191505060405180910390a16116fb565b60408051908101604052808373ffffffffffffffffffffffffffffffffffffffff16815260200182815250600660008473ffffffffffffffffffffffffffffffffffffffff1673ffffffffffffffffffffffffffffffffffffffff16815260200190815260200160002060008201518160000160006101000a81548173ffffffffffffffffffffffffffffffffffffffff021916908373ffffffffffffffffffffffffffffffffffffffff16021790555060208201518160010190805190602001906116f6929190611e58565b509050505b5050565b6000600260008373ffffffffffffffffffffffffffffffffffffffff1673ffffffffffffffffffffffffffffffffffffffff168152602001908152602001600020549050919050565b60006064606e60005484020281151561175d57fe5b0490508060026000600160009054906101000a900473ffffffffffffffffffffffffffffffffffffffff1673ffffffffffffffffffffffffffffffffffffffff1673ffffffffffffffffffffffffffffffffffffffff1681526020019081526020016000205410806117cf5750600081145b8061183e57508160046000600160009054906101000a900473ffffffffffffffffffffffffffffffffffffffff1673ffffffffffffffffffffffffffffffffffffffff1673ffffffffffffffffffffffffffffffffffffffff1681526020019081526020016000206002015411155b156118d6577fdf8dca245d7ff96a83e9b8205a2ad0be04df6e3bbda74669314fdc76657f0e826040518080602001828103825260248152602001807f506c6561736520656e7465722076616c696420616d6f756e74206f662077656981526020017f676874210000000000000000000000000000000000000000000000000000000081525060400191505060405180910390a1611a6a565b80600260008573ffffffffffffffffffffffffffffffffffffffff1673ffffffffffffffffffffffffffffffffffffffff168152602001908152602001600020600082825403925050819055508060026000600160009054906101000a900473ffffffffffffffffffffffffffffffffffffffff1673ffffffffffffffffffffffffffffffffffffffff1673ffffffffffffffffffffffffffffffffffffffff168152602001908152602001600020600082825401925050819055508160046000600160009054906101000a900473ffffffffffffffffffffffffffffffffffffffff1673ffffffffffffffffffffffffffffffffffffffff1673ffffffffffffffffffffffffffffffffffffffff168152602001908152602001600020600201600082825403925050819055508273ffffffffffffffffffffffffffffffffffffffff163373ffffffffffffffffffffffffffffffffffffffff167fddf252ad1be2c89b69c2b068fc378daa952ba7f163c4a11628f55a4df523b3ef836040518082815260200191505060405180910390a35b505050565b60606040805190810160405280600281526020017f4654000000000000000000000000000000000000000000000000000000000000815250905090565b600081600260003373ffffffffffffffffffffffffffffffffffffffff1673ffffffffffffffffffffffffffffffffffffffff168152602001908152602001600020541080611afb5750600082145b15611b095760009050611c0d565b81600260003373ffffffffffffffffffffffffffffffffffffffff1673ffffffffffffffffffffffffffffffffffffffff1681526020019081526020016000206000828254039250508190555081600260008573ffffffffffffffffffffffffffffffffffffffff1673ffffffffffffffffffffffffffffffffffffffff168152602001908152602001600020600082825401925050819055508273ffffffffffffffffffffffffffffffffffffffff163373ffffffffffffffffffffffffffffffffffffffff167fddf252ad1be2c89b69c2b068fc378daa952ba7f163c4a11628f55a4df523b3ef846040518082815260200191505060405180910390a3600190505b92915050565b60066020528060005260406000206000915090508060000160009054906101000a900473ffffffffffffffffffffffffffffffffffffffff1690806001018054600181600116156101000203166002900480601f016020809104026020016040519081016040528092919081815260200182805460018160011615610100020316600290048015611ce55780601f10611cba57610100808354040283529160200191611ce5565b820191906000526020600020905b815481529060010190602001808311611cc857829003601f168201915b5050505050905082565b6000600360008473ffffffffffffffffffffffffffffffffffffffff1673ffffffffffffffffffffffffffffffffffffffff16815260200190815260200160002060008373ffffffffffffffffffffffffffffffffffffffff1673ffffffffffffffffffffffffffffffffffffffff16815260200190815260200160002054905092915050565b60046020528060005260406000206000915090508060000160009054906101000a900473ffffffffffffffffffffffffffffffffffffffff1690806001018054600181600116156101000203166002900480601f016020809104026020016040519081016040528092919081815260200182805460018160011615610100020316600290048015611e485780601f10611e1d57610100808354040283529160200191611e48565b820191906000526020600020905b815481529060010190602001808311611e2b57829003601f168201915b5050505050908060020154905083565b828054600181600116156101000203166002900490600052602060002090601f016020900481019282601f10611e9957805160ff1916838001178555611ec7565b82800160010185558215611ec7579182015b82811115611ec6578251825591602001919060010190611eab565b5b509050611ed49190611ed8565b5090565b611efa91905b80821115611ef6576000816000905550600101611ede565b5090565b905600a165627a7a723058204bdcb8c433658e926d2f6c7dd67059fb6f210e9ee35342c1137532d3f6ec6b760029",
  "source": "pragma solidity ^0.4.17;\r\n\r\ncontract ERC20Interface {\r\n\tfunction totalSupply() public constant returns (uint256);\r\n\tfunction balanceOf(address tokenOwner) public constant returns (uint256 balance);\r\n\tfunction allowance(address tokenOwner, address spender) public constant returns (uint256 remaining);\r\n\tfunction transfer(address to, uint256 tokens) public returns (bool success);\r\n\tfunction approve(address spender, uint256 tokens) public returns (bool success);\r\n\tfunction transferFrom(address from, address to, uint256 tokens) public returns (bool success);\r\n\r\n\tevent Transfer(address indexed from, address indexed to, uint tokens);\r\n\tevent Approval(address indexed tokenOwner, address indexed spender, uint256 tokens);\r\n\tevent errorLog(string _error);\r\n}\r\n\r\ncontract Polyn is ERC20Interface {\r\n\tstring private constant NAME = \"Farmers Token\";\r\n\tstring private constant SYMBOL = \"FT\";\r\n\tuint8 private constant DECIMALS = 9;\r\n\tuint256 private constant TOTAL_SUPPLY = 10**17;\r\n\tuint PriceOfWheat = 1;\r\n\t\r\n\taddress owner = msg.sender;\r\n\t\r\n\tmapping(address => uint256) balances;\r\n\tmapping(address => mapping(address => uint256)) allowed;\r\n\t//address[] private Comb_Locale\r\n\t\r\n\t struct FarmersDetails{\r\n\t    address FarmersAddress;\r\n        string FarmersName;\r\n    }\r\n    \r\n    struct FarmersMDetails{\r\n\t    address FarmersMAddress;\r\n        string FarmersMName;\r\n        uint WeightofCrop;\r\n    }\r\n    \r\n    struct RetailersDetails{\r\n\t    address RetailersAddress;\r\n        string RetailersName;\r\n    }\r\n    \r\n    mapping(address => FarmersMDetails) public FarmersMData;\r\n    mapping(address => FarmersDetails) public FarmersData;\r\n    mapping(address => RetailersDetails) public RetailersData;\r\n\r\n\r\n\tfunction () public {\r\n\t\t//Return any ether sent to this address back\r\n\t\trevert();\r\n\t}\r\n\r\n\tfunction Polyn() public {\r\n\t\tbalances[msg.sender] = 10**17;\r\n\t}\r\n\r\n\tfunction name() public pure returns (string) {\r\n\t\treturn NAME;\r\n\t}\r\n\r\n\tfunction symbol() public pure returns (string) {\r\n\t\treturn SYMBOL;\r\n\t}\r\n\r\n\tfunction decimals() public pure returns (uint8) {\r\n\t\treturn DECIMALS;\r\n\t}\r\n\r\n\tfunction totalSupply() public view returns (uint256) {\r\n\t\treturn TOTAL_SUPPLY;\r\n\t}\r\n\r\n\tfunction balanceOf(address tokenOwner) public view returns (uint256 balance) {\r\n\t\treturn balances[tokenOwner];\r\n\t}\r\n\r\n\tfunction allowance(address tokenOwner, address spender) public view returns (uint256 remaining) {\r\n\t\treturn allowed[tokenOwner][spender];\r\n\t}\r\n\tfunction approve(address spender, uint256 tokens) public returns (bool success) {\r\n\t    //Eventually, I'd like a better address check\r\n\t    if (spender == 0) {\r\n\t        return false;\r\n\t    }\r\n\t\tallowed[msg.sender][spender] = tokens;\r\n\r\n\t\t//Fire the approval event so the network knows the amount is approved for spender\r\n\t\temit Approval(msg.sender, spender, tokens);\r\n\t\t\r\n\t\treturn true;\r\n\t}\r\n\r\n\tfunction transfer(address to, uint256 tokens) public returns (bool success) {\r\n\t\tif (balances[msg.sender] < tokens || tokens ==  0) {\r\n\t\t\treturn false;\r\n\t\t}\r\n\r\n\t\tbalances[msg.sender] -= tokens;\r\n\t\tbalances[to] += tokens;\r\n\r\n\t\t//Fire the transfer event to let the network know a transfer has taken place.\r\n\t\temit Transfer(msg.sender, to, tokens);\r\n\r\n\t\treturn true;\r\n\t}\r\n\r\n\r\n\tfunction transferFrom(address from, address to, uint256 tokens) public returns (bool sucess) {\r\n\t\tif (balances[from] < tokens || allowed[from][msg.sender] < tokens || tokens < 0) {\r\n\t\t\treturn false;\r\n\t\t}\r\n\r\n\t\tbalances[to] += tokens;\r\n\t\tbalances[from] -= tokens;\r\n\t\tallowed[from][msg.sender] -= tokens;\r\n\t\temit Transfer(from, to, tokens);\r\n\r\n\t\treturn true;\r\n\t}\r\n\t\r\n\tfunction AddFarmersMarketData( string _FarmersMName) public {\r\n        \r\n        if(FarmersMData[owner].FarmersMAddress == owner){\r\n            emit errorLog(\"Farmer Market is Registered!\");\r\n        }\r\n        else{\r\n            FarmersMData[owner] = FarmersMDetails( owner, _FarmersMName, 0);\r\n        }\r\n        \r\n    }\r\n    \r\n\tfunction AddFarmersData( address _FarmersAddress, string _FarmersName) public {\r\n        \r\n        if(FarmersData[_FarmersAddress].FarmersAddress == _FarmersAddress){\r\n            emit errorLog(\"Farmer is Registered!\");\r\n        }\r\n        else{\r\n            FarmersData[_FarmersAddress] = FarmersDetails( _FarmersAddress, _FarmersName);\r\n        }\r\n        \r\n    }\r\n    \r\n    function AddRetailerData(address _RetailersAddress, string _RetailersName) public {\r\n        \r\n        if(RetailersData[_RetailersAddress].RetailersAddress == _RetailersAddress){\r\n            emit errorLog(\"Retailer is Registered!\");\r\n        }\r\n        else{\r\n            RetailersData[_RetailersAddress] = RetailersDetails( _RetailersAddress, _RetailersName);\r\n        }\r\n        \r\n    }\r\n    \r\n    function FarmersMarketSell(address _FarmersAddress, uint _weight) public{\r\n        uint256 TotalAmount;\r\n        TotalAmount = _weight * PriceOfWheat * 90/100;\r\n        \r\n        if (balances[owner] < TotalAmount || TotalAmount ==  0) {\r\n\t\t\temit errorLog(\"Please enter valid amount\");\r\n\t\t}\r\n        else{\r\n            balances[owner] -= TotalAmount;\r\n    \t\tbalances[_FarmersAddress] += TotalAmount;\r\n            \r\n            FarmersMData[owner].WeightofCrop += _weight;\r\n    \t\t//Fire the transfer event to let the network know a transfer has taken place.\r\n    \t\temit Transfer(msg.sender, _FarmersAddress, TotalAmount);\r\n        }\r\n\t\t\r\n    }\r\n    \r\n    function RetailersMarketBuy(address _RetailersAddress, uint _weight) public{\r\n        uint256 TotalAmount;\r\n        TotalAmount = _weight * PriceOfWheat * 110/100;\r\n        \r\n        if (balances[owner] < TotalAmount || TotalAmount ==  0 || FarmersMData[owner].WeightofCrop <= _weight ) {\r\n\t\t\temit errorLog(\"Please enter valid amount of weight!\");\r\n\t\t}\r\n        else{\r\n            balances[_RetailersAddress] -= TotalAmount;\r\n    \t\tbalances[owner] += TotalAmount;\r\n            FarmersMData[owner].WeightofCrop -= _weight;\r\n    \t\t//Fire the transfer event to let the network know a transfer has taken place.\r\n    \t\temit Transfer(msg.sender, _RetailersAddress, TotalAmount);\r\n        }\r\n    }\r\n\t\r\n\r\n\r\n}\r\n",
  "sourcePath": "D:\\Farmers\\contracts\\Farmers.sol",
  "compiler": {
    "name": "solc",
    "version": "0.4.23+commit.124ca40d.Emscripten.clang"
  },
  "schemaVersion": "2.0.0",
  "updatedAt": "2018-10-28T08:23:49.763Z"
}